{
  "contractName": "Polling",
  "abi": [
    {
      "inputs": [],
      "stateMutability": "nonpayable",
      "type": "constructor"
    },
    {
      "inputs": [],
      "name": "candidateIndexEnd",
      "outputs": [
        {
          "internalType": "uint256",
          "name": "",
          "type": "uint256"
        }
      ],
      "stateMutability": "view",
      "type": "function",
      "constant": true
    },
    {
      "inputs": [],
      "name": "candidateIndexStart",
      "outputs": [
        {
          "internalType": "uint256",
          "name": "",
          "type": "uint256"
        }
      ],
      "stateMutability": "view",
      "type": "function",
      "constant": true
    },
    {
      "inputs": [
        {
          "internalType": "uint256",
          "name": "",
          "type": "uint256"
        }
      ],
      "name": "candidateList",
      "outputs": [
        {
          "internalType": "uint256",
          "name": "",
          "type": "uint256"
        }
      ],
      "stateMutability": "view",
      "type": "function",
      "constant": true
    },
    {
      "inputs": [
        {
          "internalType": "uint8",
          "name": "",
          "type": "uint8"
        }
      ],
      "name": "votesReceived",
      "outputs": [
        {
          "internalType": "uint8",
          "name": "",
          "type": "uint8"
        }
      ],
      "stateMutability": "view",
      "type": "function",
      "constant": true
    },
    {
      "inputs": [
        {
          "internalType": "uint256",
          "name": "candidateNum",
          "type": "uint256"
        }
      ],
      "name": "addCandidates",
      "outputs": [],
      "stateMutability": "nonpayable",
      "type": "function"
    },
    {
      "inputs": [
        {
          "internalType": "uint8",
          "name": "candidateIndex",
          "type": "uint8"
        },
        {
          "internalType": "uint8",
          "name": "voteCount",
          "type": "uint8"
        }
      ],
      "name": "voteForCandidate",
      "outputs": [],
      "stateMutability": "nonpayable",
      "type": "function"
    }
  ],
  "bytecode": "0x608060405234801561001057600080fd5b50600060018190555060006002819055506000600381905550610545806100386000396000f3fe608060405234801561001057600080fd5b50600436106100625760003560e01c80630b544ad014610067578063206652f4146100975780634cf952e0146100b35780639bc6f982146100cf578063b033e41f146100ed578063b13c744b1461010b575b600080fd5b610081600480360381019061007c91906102d8565b61013b565b60405161008e9190610376565b60405180910390f35b6100b160048036038101906100ac9190610301565b61015b565b005b6100cd60048036038101906100c891906102af565b6101bd565b005b6100d7610255565b6040516100e4919061035b565b60405180910390f35b6100f561025b565b604051610102919061035b565b60405180910390f35b610125600480360381019061012091906102af565b610261565b604051610132919061035b565b60405180910390f35b60046020528060005260406000206000915054906101000a900460ff1681565b6001548260ff161061016c57600080fd5b80600460008460ff1660ff16815260200190815260200160002060008282829054906101000a900460ff166101a191906103e7565b92506101000a81548160ff021916908360ff1602179055505050565b600060015490505b816001546101d39190610391565b811015610216576000819080600181540180825580915050600190039060005260206000200160009091909190915055808061020e90610469565b9150506101c5565b5060008054905060018190555080600080549050610234919061041e565b600281905550600160008054905061024c919061041e565b60038190555050565b60025481565b60035481565b6000818154811061027157600080fd5b906000526020600020016000915090505481565b600081359050610294816104e1565b92915050565b6000813590506102a9816104f8565b92915050565b6000602082840312156102c157600080fd5b60006102cf84828501610285565b91505092915050565b6000602082840312156102ea57600080fd5b60006102f88482850161029a565b91505092915050565b6000806040838503121561031457600080fd5b60006103228582860161029a565b92505060206103338582860161029a565b9150509250929050565b61034681610452565b82525050565b6103558161045c565b82525050565b6000602082019050610370600083018461033d565b92915050565b600060208201905061038b600083018461034c565b92915050565b600061039c82610452565b91506103a783610452565b9250827fffffffffffffffffffffffffffffffffffffffffffffffffffffffffffffffff038211156103dc576103db6104b2565b5b828201905092915050565b60006103f28261045c565b91506103fd8361045c565b92508260ff03821115610413576104126104b2565b5b828201905092915050565b600061042982610452565b915061043483610452565b925082821015610447576104466104b2565b5b828203905092915050565b6000819050919050565b600060ff82169050919050565b600061047482610452565b91507fffffffffffffffffffffffffffffffffffffffffffffffffffffffffffffffff8214156104a7576104a66104b2565b5b600182019050919050565b7f4e487b7100000000000000000000000000000000000000000000000000000000600052601160045260246000fd5b6104ea81610452565b81146104f557600080fd5b50565b6105018161045c565b811461050c57600080fd5b5056fea26469706673582212206d17884f6a6dee006c6aec248b9a949aba45ebbc8183569e88b852078cfef42d64736f6c63430008000033",
  "immutableReferences": {},
  "source": "// SPDX-License-Identifier: GPL-3.0\r\n\r\npragma solidity >=0.4.22 <0.9.0;\r\n\r\n//220323   bytes32 -> string   string  ==   \r\n//220329   \r\ncontract Polling {\r\n\r\n    uint[] public candidateList;\r\n\r\n    uint candidateIndexValue;\r\n\r\n    uint public candidateIndexStart;\r\n    uint public candidateIndexEnd;\r\n\r\n\r\n    //mapping   \r\n    mapping (uint8 => uint8) public votesReceived;\r\n\r\n    // \r\n    constructor() {\r\n        candidateIndexValue = 0;\r\n        candidateIndexStart = 0;\r\n        candidateIndexEnd = 0;\r\n    }\r\n\r\n    //\r\n    function addCandidates(uint candidateNum) public {\r\n        for(uint i = candidateIndexValue; i < candidateIndexValue + candidateNum; i++) {\r\n        candidateList.push(i);\r\n        }\r\n\r\n        candidateIndexValue = candidateList.length;\r\n        candidateIndexStart = candidateList.length-candidateNum;\r\n        candidateIndexEnd = candidateList.length-1;\r\n    }\r\n\r\n    //     \r\n    //    \r\n    function voteForCandidate(uint8 candidateIndex, uint8 voteCount) public {\r\n        require(candidateIndex < candidateIndexValue);\r\n        votesReceived[candidateIndex] += voteCount;\r\n    }\r\n\r\n}",
  "sourcePath": "C:\\Users\\BJH\\bcnet\\contracts\\Polling.sol",
  "compiler": {
    "name": "solc",
    "version": "0.8.0+commit.c7dfd78e.Emscripten.clang"
  },
  "schemaVersion": "3.4.6",
  "updatedAt": "2022-04-04T14:01:33.103Z",
  "networkType": "ethereum",
  "devdoc": {
    "kind": "dev",
    "methods": {},
    "version": 1
  },
  "userdoc": {
    "kind": "user",
    "methods": {},
    "version": 1
  }
}