{
  "contractName": "Polling",
  "abi": [
    {
      "inputs": [],
      "payable": false,
      "stateMutability": "nonpayable",
      "type": "constructor"
    },
    {
      "constant": true,
      "inputs": [
        {
          "internalType": "uint256",
          "name": "",
          "type": "uint256"
        }
      ],
      "name": "candidateList",
      "outputs": [
        {
          "internalType": "uint256",
          "name": "",
          "type": "uint256"
        }
      ],
      "payable": false,
      "stateMutability": "view",
      "type": "function"
    },
    {
      "constant": true,
      "inputs": [
        {
          "internalType": "uint8",
          "name": "",
          "type": "uint8"
        }
      ],
      "name": "votesReceived",
      "outputs": [
        {
          "internalType": "uint8",
          "name": "",
          "type": "uint8"
        }
      ],
      "payable": false,
      "stateMutability": "view",
      "type": "function"
    },
    {
      "constant": false,
      "inputs": [
        {
          "internalType": "uint256",
          "name": "candidateNum",
          "type": "uint256"
        }
      ],
      "name": "addCandidates",
      "outputs": [
        {
          "internalType": "uint256",
          "name": "",
          "type": "uint256"
        },
        {
          "internalType": "uint256",
          "name": "",
          "type": "uint256"
        }
      ],
      "payable": false,
      "stateMutability": "nonpayable",
      "type": "function"
    },
    {
      "constant": false,
      "inputs": [
        {
          "internalType": "uint8",
          "name": "candidateIndex",
          "type": "uint8"
        },
        {
          "internalType": "uint8",
          "name": "voteCount",
          "type": "uint8"
        }
      ],
      "name": "voteForCandidate",
      "outputs": [],
      "payable": false,
      "stateMutability": "nonpayable",
      "type": "function"
    }
  ],
  "bytecode": "0x608060405234801561001057600080fd5b5060006001819055506102ab806100286000396000f3fe608060405234801561001057600080fd5b506004361061004c5760003560e01c80630b544ad014610051578063206652f41461009c5780634cf952e0146100da578063b13c744b14610123575b600080fd5b6100806004803603602081101561006757600080fd5b81019080803560ff169060200190929190505050610165565b604051808260ff1660ff16815260200191505060405180910390f35b6100d8600480360360408110156100b257600080fd5b81019080803560ff169060200190929190803560ff169060200190929190505050610185565b005b610106600480360360208110156100f057600080fd5b81019080803590602001909291905050506101de565b604051808381526020018281526020019250505060405180910390f35b61014f6004803603602081101561013957600080fd5b8101908080359060200190929190505050610255565b6040518082815260200191505060405180910390f35b60026020528060005260406000206000915054906101000a900460ff1681565b6001548260ff161061019657600080fd5b80600260008460ff1660ff16815260200190815260200160002060008282829054906101000a900460ff160192506101000a81548160ff021916908360ff1602179055505050565b600080600060015490505b836001540181101561022e57600081908060018154018082558091505090600182039060005260206000200160009091929091909150555080806001019150506101e9565b50600080549050600181905550826000805490500360016000805490500391509150915091565b6000818154811061026257fe5b90600052602060002001600091509050548156fea265627a7a72315820884a1e9214ff7402e6ec1c416bdaab45932be39641eb3a71c9b1429b161805ce64736f6c63430005100032",
  "source": "// SPDX-License-Identifier: GPL-3.0\r\n\r\npragma solidity >=0.4.22 <0.9.0;\r\n\r\n//220323 데이터 타입 bytes32 -> string으로 변경 및 string 타입 == 사용 및 적용\r\n//220329 후보자 등록 개선\r\ncontract Polling {\r\n\r\n    uint[] public candidateList;\r\n\r\n    uint candidateIndexValue;\r\n\r\n    //mapping으로 득표수를 계속 추적함\r\n    mapping (uint8 => uint8) public votesReceived;\r\n\r\n    //초기 생성자\r\n    constructor() public {\r\n        candidateIndexValue = 0;\r\n    }\r\n\r\n    //다중후보자추가\r\n    function addCandidates(uint candidateNum) public returns (uint, uint) {\r\n        for(uint i = candidateIndexValue; i < candidateIndexValue + candidateNum; i++) {\r\n        candidateList.push(i);\r\n        }\r\n\r\n        candidateIndexValue = candidateList.length;\r\n\r\n        return (candidateList.length-candidateNum, candidateList.length-1);\r\n    }\r\n\r\n    //현재 후보자 인덱스 보다 큰값인경우 실행하지않음\r\n    //투표 메서드 후보자의 인덱스번호로 입력\r\n    function voteForCandidate(uint8 candidateIndex, uint8 voteCount) public {\r\n        require(candidateIndex < candidateIndexValue);\r\n        votesReceived[candidateIndex] += voteCount;\r\n    }\r\n\r\n}",
  "sourcePath": "C:/Users/BJH/bcnet/contracts/Polling.sol",
  "compiler": {
    "name": "solc",
    "version": "0.5.16+commit.9c3226ce.Emscripten.clang"
  },
  "schemaVersion": "3.3.3",
  "updatedAt": "2022-04-01T07:46:11.125Z",
  "networkType": "ethereum",
  "devdoc": {
    "methods": {}
  },
  "userdoc": {
    "methods": {}
  }
}